{
  "contractName": "Faucet",
  "abi": [
    {
      "inputs": [
        {
          "internalType": "contract ERC20",
          "name": "_token",
          "type": "address"
        }
      ],
      "stateMutability": "nonpayable",
      "type": "constructor"
    },
    {
      "anonymous": false,
      "inputs": [
        {
          "indexed": true,
          "internalType": "address",
          "name": "previousOwner",
          "type": "address"
        },
        {
          "indexed": true,
          "internalType": "address",
          "name": "newOwner",
          "type": "address"
        }
      ],
      "name": "OwnershipTransferred",
      "type": "event"
    },
    {
      "anonymous": false,
      "inputs": [
        {
          "indexed": true,
          "internalType": "address",
          "name": "claimer",
          "type": "address"
        },
        {
          "indexed": false,
          "internalType": "uint256",
          "name": "claimTime",
          "type": "uint256"
        }
      ],
      "name": "tokenAirdropped",
      "type": "event"
    },
    {
      "inputs": [],
      "name": "owner",
      "outputs": [
        {
          "internalType": "address",
          "name": "",
          "type": "address"
        }
      ],
      "stateMutability": "view",
      "type": "function",
      "constant": true
    },
    {
      "inputs": [],
      "name": "renounceOwnership",
      "outputs": [],
      "stateMutability": "nonpayable",
      "type": "function"
    },
    {
      "inputs": [],
      "name": "token",
      "outputs": [
        {
          "internalType": "contract ERC20",
          "name": "",
          "type": "address"
        }
      ],
      "stateMutability": "view",
      "type": "function",
      "constant": true
    },
    {
      "inputs": [
        {
          "internalType": "address",
          "name": "newOwner",
          "type": "address"
        }
      ],
      "name": "transferOwnership",
      "outputs": [],
      "stateMutability": "nonpayable",
      "type": "function"
    },
    {
      "inputs": [
        {
          "internalType": "uint256",
          "name": "amount_",
          "type": "uint256"
        }
      ],
      "name": "depositToken",
      "outputs": [],
      "stateMutability": "nonpayable",
      "type": "function"
    },
    {
      "inputs": [],
      "name": "claimTokens",
      "outputs": [],
      "stateMutability": "nonpayable",
      "type": "function"
    }
  ],
  "bytecode": "0x608060405234801561001057600080fd5b506040516106c53803806106c583398101604081905261002f91610113565b610038336100c3565b6001600160a01b03811661009e5760405162461bcd60e51b815260206004820152602360248201527f546f6b656e20616464726573732063616e27742062652061646472657373207a60448201526265726f60e81b606482015260840160405180910390fd5b600180546001600160a01b0319166001600160a01b0392909216919091179055610141565b600080546001600160a01b038381166001600160a01b0319831681178455604051919092169283917f8be0079c531659141344cd1fd0a4f28419497f9722a3daafe3b4186f6b6457e09190a35050565b600060208284031215610124578081fd5b81516001600160a01b038116811461013a578182fd5b9392505050565b610575806101506000396000f3fe608060405234801561001057600080fd5b50600436106100625760003560e01c806348c54b9d146100675780636215be7714610071578063715018a6146100845780638da5cb5b1461008c578063f2fde38b146100b5578063fc0c546a146100c8575b600080fd5b61006f6100db565b005b61006f61007f366004610503565b6102b2565b61006f610381565b6000546001600160a01b03165b6040516001600160a01b03909116815260200160405180910390f35b61006f6100c33660046104b5565b610395565b600154610099906001600160a01b031681565b336000908152600260205260409020600101546100fb906201518061051b565b421161014e5760405162461bcd60e51b815260206004820181905260248201527f5573657220636c61696d6564206c657373207468616e2032346872732061676f60448201526064015b60405180910390fd5b60006040518060400160405280336001600160a01b031681526020016101714290565b905233600081815260026020908152604091829020845181546001600160a01b0319166001600160a01b039182161782559185015160019182015554915163a9059cbb60e01b81526004810193909352678ac7230489e8000060248401529293509091169063a9059cbb90604401602060405180830381600087803b1580156101f957600080fd5b505af115801561020d573d6000803e3d6000fd5b505050506040513d601f19601f8201168201806040525081019061023191906104e3565b6102765760405162461bcd60e51b8152602060048201526016602482015275546f6b656e205472616e73666572204661696c65642160501b6044820152606401610145565b60208082015160405190815233917f910de9fea07d943818a6b89b3fda75573eea6b9b3a96e4a77ca02b05b62017be910160405180910390a250565b6001546040516323b872dd60e01b8152336004820152306024820152604481018390526001600160a01b03909116906323b872dd90606401602060405180830381600087803b15801561030457600080fd5b505af1158015610318573d6000803e3d6000fd5b505050506040513d601f19601f8201168201806040525081019061033c91906104e3565b61037e5760405162461bcd60e51b81526020600482015260136024820152725472616e73616374696f6e204661696c65642160681b6044820152606401610145565b50565b61038961040b565b6103936000610465565b565b61039d61040b565b6001600160a01b0381166104025760405162461bcd60e51b815260206004820152602660248201527f4f776e61626c653a206e6577206f776e657220697320746865207a65726f206160448201526564647265737360d01b6064820152608401610145565b61037e81610465565b6000546001600160a01b031633146103935760405162461bcd60e51b815260206004820181905260248201527f4f776e61626c653a2063616c6c6572206973206e6f7420746865206f776e65726044820152606401610145565b600080546001600160a01b038381166001600160a01b0319831681178455604051919092169283917f8be0079c531659141344cd1fd0a4f28419497f9722a3daafe3b4186f6b6457e09190a35050565b6000602082840312156104c6578081fd5b81356001600160a01b03811681146104dc578182fd5b9392505050565b6000602082840312156104f4578081fd5b815180151581146104dc578182fd5b600060208284031215610514578081fd5b5035919050565b6000821982111561053a57634e487b7160e01b81526011600452602481fd5b50019056fea2646970667358221220c612a3beba92386b585a89f03a4f6770851fd58be331beda26a12aed23e063aa64736f6c63430008040033",
  "immutableReferences": {},
  "source": "// SPDX-License-Identifier: MIT\n\npragma solidity ^0.8.4;\n\nimport \"@openzeppelin/contracts/token/ERC20/ERC20.sol\";\nimport \"@openzeppelin/contracts/access/Ownable.sol\";\nimport \"@openzeppelin/contracts/utils/math/SafeMath.sol\";\n\ncontract Faucet is Ownable {\n\n    using SafeMath for uint256; // sub add mul div\n\n    // uint 256 value;\n    // value = value + 1; - not safe - naive\n    // value = value.add(1); - safe\n\n    ERC20 public token;\n\n    struct Airdrop {\n        address claimer;\n        uint256 lastTimeClaimed;\n    }\n\n    event tokenAirdropped(address indexed claimer, uint256 claimTime);\n\n    // There can only be 3 indexed variables in an event\n\n    // @dev address is the claimer's address\n    // this address points to an Airdrop struct\n    mapping ( address => Airdrop ) private tokensDroped;\n    // before the pointer = argument of the mapper tokesDroped\n    // after the pointer = Type of variable stored\n\n    // tokensDroped[] - is like an array\n    // tokensDroped[address]\n\n    constructor(ERC20 _token) {\n        require(address(_token) != address(0), \"Token address can't be address zero\");\n        token = _token;\n    }\n\n    function depositToken(uint256 amount_) public {\n        require(token.transferFrom(msg.sender, address(this), amount_), \"Transaction Failed!\");\n        // Token transfer inside a require will revert with no gas expanses\n        // if the transfer fails\n    }\n\n    // If a user tries to claim tokens within a 24 hour spam, the claimTokens method should fail\n    function claimTokens() public {\n        require( currentTime() > tokensDroped[msg.sender].lastTimeClaimed + 86400, 'User claimed less than 24hrs ago');\n        // 24 * 60 = 1440 min\n        // 1440 min * 60 = 86400 sec\n        // REMEMBER: Do unit test using mocha for *days* native variable\n        \n        Airdrop memory _airdrop = Airdrop({\n            claimer: msg.sender, // msg.sender is the person claiming the token\n            lastTimeClaimed: currentTime() // register last time msg.sender claimed a token\n        });\n\n        tokensDroped[msg.sender] = _airdrop;\n\n        require(token.transfer(msg.sender, 10 ether), \"Token Transfer Failed!\"); // Is the same of - token.trasnferFrom(this(address), msg.sender, 10 ether)\n        emit tokenAirdropped(msg.sender, _airdrop.lastTimeClaimed);\n    }\n\n    function currentTime() private view returns (uint256) {\n        return block.timestamp;\n        // 352697412 - unix timestamp\n        // 2021-05-25 17:00:00 - human readable\n    }\n}\n\n",
  "sourcePath": "/home/menezes/Projects/solidity-classes/class-05/contracts/TokenFaucet.sol",
  "compiler": {
    "name": "solc",
    "version": "0.8.4+commit.c7e474f2.Emscripten.clang"
  },
  "schemaVersion": "3.4.10",
  "updatedAt": "2022-10-07T18:36:45.197Z",
  "networkType": "ethereum",
  "devdoc": {
    "kind": "dev",
    "methods": {
      "owner()": {
        "details": "Returns the address of the current owner."
      },
      "renounceOwnership()": {
        "details": "Leaves the contract without owner. It will not be possible to call `onlyOwner` functions anymore. Can only be called by the current owner. NOTE: Renouncing ownership will leave the contract without an owner, thereby removing any functionality that is only available to the owner."
      },
      "transferOwnership(address)": {
        "details": "Transfers ownership of the contract to a new account (`newOwner`). Can only be called by the current owner."
      }
    },
    "version": 1
  },
  "userdoc": {
    "kind": "user",
    "methods": {},
    "version": 1
  }
}